{
    "contractName": "GNSTradingV6_2",
    "abi": [
        {
            "inputs": [
                {
                    "internalType": "contract StorageInterfaceV5",
                    "name": "_storageT",
                    "type": "address"
                },
                {
                    "internalType": "contract NftRewardsInterfaceV6",
                    "name": "_nftRewards",
                    "type": "address"
                },
                {
                    "internalType": "contract GNSPairInfosInterfaceV6",
                    "name": "_pairInfos",
                    "type": "address"
                },
                {
                    "internalType": "contract GNSReferralsInterfaceV6_2",
                    "name": "_referrals",
                    "type": "address"
                },
                {
                    "internalType": "uint256",
                    "name": "_maxPosDai",
                    "type": "uint256"
                },
                {
                    "internalType": "uint256",
                    "name": "_limitOrdersTimelock",
                    "type": "uint256"
                },
                {
                    "internalType": "uint256",
                    "name": "_marketOrdersTimeout",
                    "type": "uint256"
                }
            ],
            "stateMutability": "nonpayable",
            "type": "constructor"
        },
        {
            "anonymous": false,
            "inputs": [
                {
                    "indexed": true,
                    "internalType": "uint256",
                    "name": "orderId",
                    "type": "uint256"
                },
                {
                    "components": [
                        {
                            "components": [
                                {
                                    "internalType": "address",
                                    "name": "trader",
                                    "type": "address"
                                },
                                {
                                    "internalType": "uint256",
                                    "name": "pairIndex",
                                    "type": "uint256"
                                },
                                {
                                    "internalType": "uint256",
                                    "name": "index",
                                    "type": "uint256"
                                },
                                {
                                    "internalType": "uint256",
                                    "name": "initialPosToken",
                                    "type": "uint256"
                                },
                                {
                                    "internalType": "uint256",
                                    "name": "positionSizeDai",
                                    "type": "uint256"
                                },
                                {
                                    "internalType": "uint256",
                                    "name": "openPrice",
                                    "type": "uint256"
                                },
                                {
                                    "internalType": "bool",
                                    "name": "buy",
                                    "type": "bool"
                                },
                                {
                                    "internalType": "uint256",
                                    "name": "leverage",
                                    "type": "uint256"
                                },
                                {
                                    "internalType": "uint256",
                                    "name": "tp",
                                    "type": "uint256"
                                },
                                {
                                    "internalType": "uint256",
                                    "name": "sl",
                                    "type": "uint256"
                                }
                            ],
                            "internalType": "struct StorageInterfaceV5.Trade",
                            "name": "trade",
                            "type": "tuple"
                        },
                        {
                            "internalType": "uint256",
                            "name": "block",
                            "type": "uint256"
                        },
                        {
                            "internalType": "uint256",
                            "name": "wantedPrice",
                            "type": "uint256"
                        },
                        {
                            "internalType": "uint256",
                            "name": "slippageP",
                            "type": "uint256"
                        },
                        {
                            "internalType": "uint256",
                            "name": "spreadReductionP",
                            "type": "uint256"
                        },
                        {
                            "internalType": "uint256",
                            "name": "tokenId",
                            "type": "uint256"
                        }
                    ],
                    "indexed": false,
                    "internalType": "struct StorageInterfaceV5.PendingMarketOrder",
                    "name": "order",
                    "type": "tuple"
                }
            ],
            "name": "ChainlinkCallbackTimeout",
            "type": "event"
        },
        {
            "anonymous": false,
            "inputs": [
                {
                    "indexed": true,
                    "internalType": "address",
                    "name": "trader",
                    "type": "address"
                },
                {
                    "indexed": true,
                    "internalType": "uint256",
                    "name": "pairIndex",
                    "type": "uint256"
                },
                {
                    "indexed": false,
                    "internalType": "uint256",
                    "name": "index",
                    "type": "uint256"
                }
            ],
            "name": "CouldNotCloseTrade",
            "type": "event"
        },
        {
            "anonymous": false,
            "inputs": [
                {
                    "indexed": false,
                    "internalType": "bool",
                    "name": "done",
                    "type": "bool"
                }
            ],
            "name": "Done",
            "type": "event"
        },
        {
            "anonymous": false,
            "inputs": [
                {
                    "indexed": true,
                    "internalType": "uint256",
                    "name": "orderId",
                    "type": "uint256"
                },
                {
                    "indexed": true,
                    "internalType": "address",
                    "name": "trader",
                    "type": "address"
                },
                {
                    "indexed": true,
                    "internalType": "uint256",
                    "name": "pairIndex",
                    "type": "uint256"
                },
                {
                    "indexed": false,
                    "internalType": "bool",
                    "name": "open",
                    "type": "bool"
                }
            ],
            "name": "MarketOrderInitiated",
            "type": "event"
        },
        {
            "anonymous": false,
            "inputs": [
                {
                    "indexed": false,
                    "internalType": "uint256",
                    "name": "orderId",
                    "type": "uint256"
                },
                {
                    "indexed": true,
                    "internalType": "address",
                    "name": "nftHolder",
                    "type": "address"
                },
                {
                    "indexed": true,
                    "internalType": "address",
                    "name": "trader",
                    "type": "address"
                },
                {
                    "indexed": true,
                    "internalType": "uint256",
                    "name": "pairIndex",
                    "type": "uint256"
                }
            ],
            "name": "NftOrderInitiated",
            "type": "event"
        },
        {
            "anonymous": false,
            "inputs": [
                {
                    "indexed": true,
                    "internalType": "address",
                    "name": "nftHolder",
                    "type": "address"
                },
                {
                    "indexed": true,
                    "internalType": "address",
                    "name": "trader",
                    "type": "address"
                },
                {
                    "indexed": true,
                    "internalType": "uint256",
                    "name": "pairIndex",
                    "type": "uint256"
                }
            ],
            "name": "NftOrderSameBlock",
            "type": "event"
        },
        {
            "anonymous": false,
            "inputs": [
                {
                    "indexed": false,
                    "internalType": "string",
                    "name": "name",
                    "type": "string"
                },
                {
                    "indexed": false,
                    "internalType": "uint256",
                    "name": "value",
                    "type": "uint256"
                }
            ],
            "name": "NumberUpdated",
            "type": "event"
        },
        {
            "anonymous": false,
            "inputs": [
                {
                    "indexed": true,
                    "internalType": "address",
                    "name": "trader",
                    "type": "address"
                },
                {
                    "indexed": true,
                    "internalType": "uint256",
                    "name": "pairIndex",
                    "type": "uint256"
                },
                {
                    "indexed": false,
                    "internalType": "uint256",
                    "name": "index",
                    "type": "uint256"
                }
            ],
            "name": "OpenLimitCanceled",
            "type": "event"
        },
        {
            "anonymous": false,
            "inputs": [
                {
                    "indexed": true,
                    "internalType": "address",
                    "name": "trader",
                    "type": "address"
                },
                {
                    "indexed": true,
                    "internalType": "uint256",
                    "name": "pairIndex",
                    "type": "uint256"
                },
                {
                    "indexed": false,
                    "internalType": "uint256",
                    "name": "index",
                    "type": "uint256"
                }
            ],
            "name": "OpenLimitPlaced",
            "type": "event"
        },
        {
            "anonymous": false,
            "inputs": [
                {
                    "indexed": true,
                    "internalType": "address",
                    "name": "trader",
                    "type": "address"
                },
                {
                    "indexed": true,
                    "internalType": "uint256",
                    "name": "pairIndex",
                    "type": "uint256"
                },
                {
                    "indexed": false,
                    "internalType": "uint256",
                    "name": "index",
                    "type": "uint256"
                },
                {
                    "indexed": false,
                    "internalType": "uint256",
                    "name": "newPrice",
                    "type": "uint256"
                },
                {
                    "indexed": false,
                    "internalType": "uint256",
                    "name": "newTp",
                    "type": "uint256"
                },
                {
                    "indexed": false,
                    "internalType": "uint256",
                    "name": "newSl",
                    "type": "uint256"
                }
            ],
            "name": "OpenLimitUpdated",
            "type": "event"
        },
        {
            "anonymous": false,
            "inputs": [
                {
                    "indexed": false,
                    "internalType": "bool",
                    "name": "paused",
                    "type": "bool"
                }
            ],
            "name": "Paused",
            "type": "event"
        },
        {
            "anonymous": false,
            "inputs": [
                {
                    "indexed": true,
                    "internalType": "uint256",
                    "name": "orderId",
                    "type": "uint256"
                },
                {
                    "indexed": true,
                    "internalType": "address",
                    "name": "trader",
                    "type": "address"
                },
                {
                    "indexed": true,
                    "internalType": "uint256",
                    "name": "pairIndex",
                    "type": "uint256"
                },
                {
                    "indexed": false,
                    "internalType": "uint256",
                    "name": "index",
                    "type": "uint256"
                },
                {
                    "indexed": false,
                    "internalType": "uint256",
                    "name": "newSl",
                    "type": "uint256"
                }
            ],
            "name": "SlUpdateInitiated",
            "type": "event"
        },
        {
            "anonymous": false,
            "inputs": [
                {
                    "indexed": true,
                    "internalType": "address",
                    "name": "trader",
                    "type": "address"
                },
                {
                    "indexed": true,
                    "internalType": "uint256",
                    "name": "pairIndex",
                    "type": "uint256"
                },
                {
                    "indexed": false,
                    "internalType": "uint256",
                    "name": "index",
                    "type": "uint256"
                },
                {
                    "indexed": false,
                    "internalType": "uint256",
                    "name": "newSl",
                    "type": "uint256"
                }
            ],
            "name": "SlUpdated",
            "type": "event"
        },
        {
            "anonymous": false,
            "inputs": [
                {
                    "indexed": true,
                    "internalType": "address",
                    "name": "trader",
                    "type": "address"
                },
                {
                    "indexed": true,
                    "internalType": "uint256",
                    "name": "pairIndex",
                    "type": "uint256"
                },
                {
                    "indexed": false,
                    "internalType": "uint256",
                    "name": "index",
                    "type": "uint256"
                },
                {
                    "indexed": false,
                    "internalType": "uint256",
                    "name": "newTp",
                    "type": "uint256"
                }
            ],
            "name": "TpUpdated",
            "type": "event"
        },
        {
            "inputs": [],
            "name": "_msgSender",
            "outputs": [
                {
                    "internalType": "address",
                    "name": "",
                    "type": "address"
                }
            ],
            "stateMutability": "view",
            "type": "function"
        },
        {
            "inputs": [
                {
                    "internalType": "address",
                    "name": "trader",
                    "type": "address"
                },
                {
                    "internalType": "bytes",
                    "name": "call_data",
                    "type": "bytes"
                }
            ],
            "name": "delegatedAction",
            "outputs": [
                {
                    "internalType": "bytes",
                    "name": "",
                    "type": "bytes"
                }
            ],
            "stateMutability": "nonpayable",
            "type": "function"
        },
        {
            "inputs": [
                {
                    "internalType": "address",
                    "name": "",
                    "type": "address"
                }
            ],
            "name": "delegations",
            "outputs": [
                {
                    "internalType": "address",
                    "name": "",
                    "type": "address"
                }
            ],
            "stateMutability": "view",
            "type": "function"
        },
        {
            "inputs": [],
            "name": "isDone",
            "outputs": [
                {
                    "internalType": "bool",
                    "name": "",
                    "type": "bool"
                }
            ],
            "stateMutability": "view",
            "type": "function"
        },
        {
            "inputs": [],
            "name": "isPaused",
            "outputs": [
                {
                    "internalType": "bool",
                    "name": "",
                    "type": "bool"
                }
            ],
            "stateMutability": "view",
            "type": "function"
        },
        {
            "inputs": [],
            "name": "limitOrdersTimelock",
            "outputs": [
                {
                    "internalType": "uint256",
                    "name": "",
                    "type": "uint256"
                }
            ],
            "stateMutability": "view",
            "type": "function"
        },
        {
            "inputs": [],
            "name": "marketOrdersTimeout",
            "outputs": [
                {
                    "internalType": "uint256",
                    "name": "",
                    "type": "uint256"
                }
            ],
            "stateMutability": "view",
            "type": "function"
        },
        {
            "inputs": [],
            "name": "maxPosDai",
            "outputs": [
                {
                    "internalType": "uint256",
                    "name": "",
                    "type": "uint256"
                }
            ],
            "stateMutability": "view",
            "type": "function"
        },
        {
            "inputs": [],
            "name": "nftRewards",
            "outputs": [
                {
                    "internalType": "contract NftRewardsInterfaceV6",
                    "name": "",
                    "type": "address"
                }
            ],
            "stateMutability": "view",
            "type": "function"
        },
        {
            "inputs": [],
            "name": "pairInfos",
            "outputs": [
                {
                    "internalType": "contract GNSPairInfosInterfaceV6",
                    "name": "",
                    "type": "address"
                }
            ],
            "stateMutability": "view",
            "type": "function"
        },
        {
            "inputs": [],
            "name": "referrals",
            "outputs": [
                {
                    "internalType": "contract GNSReferralsInterfaceV6_2",
                    "name": "",
                    "type": "address"
                }
            ],
            "stateMutability": "view",
            "type": "function"
        },
        {
            "inputs": [],
            "name": "removeDelegate",
            "outputs": [],
            "stateMutability": "nonpayable",
            "type": "function"
        },
        {
            "inputs": [
                {
                    "internalType": "address",
                    "name": "delegate",
                    "type": "address"
                }
            ],
            "name": "setDelegate",
            "outputs": [],
            "stateMutability": "nonpayable",
            "type": "function"
        },
        {
            "inputs": [],
            "name": "storageT",
            "outputs": [
                {
                    "internalType": "contract StorageInterfaceV5",
                    "name": "",
                    "type": "address"
                }
            ],
            "stateMutability": "view",
            "type": "function"
        },
        {
            "inputs": [
                {
                    "internalType": "uint256",
                    "name": "value",
                    "type": "uint256"
                }
            ],
            "name": "setMaxPosDai",
            "outputs": [],
            "stateMutability": "nonpayable",
            "type": "function"
        },
        {
            "inputs": [
                {
                    "internalType": "uint256",
                    "name": "value",
                    "type": "uint256"
                }
            ],
            "name": "setLimitOrdersTimelock",
            "outputs": [],
            "stateMutability": "nonpayable",
            "type": "function"
        },
        {
            "inputs": [
                {
                    "internalType": "uint256",
                    "name": "value",
                    "type": "uint256"
                }
            ],
            "name": "setMarketOrdersTimeout",
            "outputs": [],
            "stateMutability": "nonpayable",
            "type": "function"
        },
        {
            "inputs": [],
            "name": "pause",
            "outputs": [],
            "stateMutability": "nonpayable",
            "type": "function"
        },
        {
            "inputs": [],
            "name": "done",
            "outputs": [],
            "stateMutability": "nonpayable",
            "type": "function"
        },
        {
            "inputs": [
                {
                    "components": [
                        {
                            "internalType": "address",
                            "name": "trader",
                            "type": "address"
                        },
                        {
                            "internalType": "uint256",
                            "name": "pairIndex",
                            "type": "uint256"
                        },
                        {
                            "internalType": "uint256",
                            "name": "index",
                            "type": "uint256"
                        },
                        {
                            "internalType": "uint256",
                            "name": "initialPosToken",
                            "type": "uint256"
                        },
                        {
                            "internalType": "uint256",
                            "name": "positionSizeDai",
                            "type": "uint256"
                        },
                        {
                            "internalType": "uint256",
                            "name": "openPrice",
                            "type": "uint256"
                        },
                        {
                            "internalType": "bool",
                            "name": "buy",
                            "type": "bool"
                        },
                        {
                            "internalType": "uint256",
                            "name": "leverage",
                            "type": "uint256"
                        },
                        {
                            "internalType": "uint256",
                            "name": "tp",
                            "type": "uint256"
                        },
                        {
                            "internalType": "uint256",
                            "name": "sl",
                            "type": "uint256"
                        }
                    ],
                    "internalType": "struct StorageInterfaceV5.Trade",
                    "name": "t",
                    "type": "tuple"
                },
                {
                    "internalType": "enum NftRewardsInterfaceV6.OpenLimitOrderType",
                    "name": "orderType",
                    "type": "uint8"
                },
                {
                    "internalType": "uint256",
                    "name": "spreadReductionId",
                    "type": "uint256"
                },
                {
                    "internalType": "uint256",
                    "name": "slippageP",
                    "type": "uint256"
                },
                {
                    "internalType": "address",
                    "name": "referrer",
                    "type": "address"
                }
            ],
            "name": "openTrade",
            "outputs": [],
            "stateMutability": "nonpayable",
            "type": "function"
        },
        {
            "inputs": [
                {
                    "internalType": "uint256",
                    "name": "pairIndex",
                    "type": "uint256"
                },
                {
                    "internalType": "uint256",
                    "name": "index",
                    "type": "uint256"
                }
            ],
            "name": "closeTradeMarket",
            "outputs": [],
            "stateMutability": "nonpayable",
            "type": "function"
        },
        {
            "inputs": [
                {
                    "internalType": "uint256",
                    "name": "pairIndex",
                    "type": "uint256"
                },
                {
                    "internalType": "uint256",
                    "name": "index",
                    "type": "uint256"
                },
                {
                    "internalType": "uint256",
                    "name": "price",
                    "type": "uint256"
                },
                {
                    "internalType": "uint256",
                    "name": "tp",
                    "type": "uint256"
                },
                {
                    "internalType": "uint256",
                    "name": "sl",
                    "type": "uint256"
                }
            ],
            "name": "updateOpenLimitOrder",
            "outputs": [],
            "stateMutability": "nonpayable",
            "type": "function"
        },
        {
            "inputs": [
                {
                    "internalType": "uint256",
                    "name": "pairIndex",
                    "type": "uint256"
                },
                {
                    "internalType": "uint256",
                    "name": "index",
                    "type": "uint256"
                }
            ],
            "name": "cancelOpenLimitOrder",
            "outputs": [],
            "stateMutability": "nonpayable",
            "type": "function"
        },
        {
            "inputs": [
                {
                    "internalType": "uint256",
                    "name": "pairIndex",
                    "type": "uint256"
                },
                {
                    "internalType": "uint256",
                    "name": "index",
                    "type": "uint256"
                },
                {
                    "internalType": "uint256",
                    "name": "newTp",
                    "type": "uint256"
                }
            ],
            "name": "updateTp",
            "outputs": [],
            "stateMutability": "nonpayable",
            "type": "function"
        },
        {
            "inputs": [
                {
                    "internalType": "uint256",
                    "name": "pairIndex",
                    "type": "uint256"
                },
                {
                    "internalType": "uint256",
                    "name": "index",
                    "type": "uint256"
                },
                {
                    "internalType": "uint256",
                    "name": "newSl",
                    "type": "uint256"
                }
            ],
            "name": "updateSl",
            "outputs": [],
            "stateMutability": "nonpayable",
            "type": "function"
        },
        {
            "inputs": [
                {
                    "internalType": "enum StorageInterfaceV5.LimitOrder",
                    "name": "orderType",
                    "type": "uint8"
                },
                {
                    "internalType": "address",
                    "name": "trader",
                    "type": "address"
                },
                {
                    "internalType": "uint256",
                    "name": "pairIndex",
                    "type": "uint256"
                },
                {
                    "internalType": "uint256",
                    "name": "index",
                    "type": "uint256"
                },
                {
                    "internalType": "uint256",
                    "name": "nftId",
                    "type": "uint256"
                },
                {
                    "internalType": "uint256",
                    "name": "nftType",
                    "type": "uint256"
                }
            ],
            "name": "executeNftOrder",
            "outputs": [],
            "stateMutability": "nonpayable",
            "type": "function"
        },
        {
            "inputs": [
                {
                    "internalType": "uint256",
                    "name": "_order",
                    "type": "uint256"
                }
            ],
            "name": "openTradeMarketTimeout",
            "outputs": [],
            "stateMutability": "nonpayable",
            "type": "function"
        },
        {
            "inputs": [
                {
                    "internalType": "uint256",
                    "name": "_order",
                    "type": "uint256"
                }
            ],
            "name": "closeTradeMarketTimeout",
            "outputs": [],
            "stateMutability": "nonpayable",
            "type": "function"
        }
    ],
    "bytecode": "0x6101006040523480156200001257600080fd5b506040516200597038038062005970833981016040819052620000359162000134565b6001600160a01b038716158015906200005657506001600160a01b03861615155b80156200006b57506001600160a01b03851615155b80156200008057506001600160a01b03841615155b80156200008d5750600083115b80156200009a5750600082115b8015620000a75750600081115b620000e75760405162461bcd60e51b815260206004820152600c60248201526b57524f4e475f504152414d5360a01b604482015260640160405180910390fd5b6001600160a01b0396871660805294861660a05292851660c052931660e052600292909255600391909155600455620001bb565b6001600160a01b03811681146200013157600080fd5b50565b600080600080600080600060e0888a0312156200015057600080fd5b87516200015d816200011b565b602089015190975062000170816200011b565b604089015190965062000183816200011b565b606089015190955062000196816200011b565b809450506080880151925060a0880151915060c0880151905092959891949750929550565b60805160a05160c05160e0516155ad620003c3600039600081816103ce01526122050152600081816101ca01528181611a0901528181611ace015281816132e601528181613355015261466801526000818161026101528181611e77015281816130cc015281816131600152818161374f01526138260152600081816101f10152818161049f0152818161054f015281816106a60152818161076d015281816108cd015281816109f501528181610a6d01528181610b1e01528181610c9d01528181610dc301528181611102015281816111f80152818161129401528181611326015281816113b801528181611487015281816115260152818161180e01528181611b8f01528181611c4001528181611cbb01528181611d3601528181611fc9015281816120a4015281816122b001528181612346015281816123d901528181612478015281816125710152818161269a015281816127f5015281816128ff01528181612abc01528181612bfa01528181612c9001528181612de001528181612e920152818161321001528181613416015281816134e6015281816135550152818161366d01528181613934015281816139e401528181613aaa01528181613b2901528181613c2801528181613cbe01528181613e4d01528181613fc5015281816142b301528181614417015281816144ad015281816145a901526146b601526155ad6000f3fe608060405234801561001057600080fd5b50600436106101845760003560e01c80639a10cc32116100d9578063b9b6573a11610087578063b9b6573a14610367578063be73fb991461037a578063bffe34861461038d578063ca5eb5e1146103b6578063d3dc7539146103c9578063d4a1caa7146103f0578063d8defd151461040357600080fd5b80639a10cc32146102e65780639aa7c0e514610306578063a2a3c0cb14610319578063ae8421e11461032c578063b187bd2614610334578063b81bfa0514610341578063b8ebd5cc1461035457600080fd5b8063410c0b7c11610136578063410c0b7c146102535780635ad9f9931461025c5780638456cb5914610283578063876d3abd1461028b5780638f0622271461029e578063934d1cf4146102c0578063990382cf146102d357600080fd5b80630890d22a14610189578063119df25f146101a55780631346b0ff146101c557806316fff074146101ec578063279a165c14610213578063318a368b1461021c57806336fb8b1514610231575b600080fd5b61019260035481565b6040519081526020015b60405180910390f35b6101ad610416565b6040516001600160a01b03909116815260200161019c565b6101ad7f000000000000000000000000000000000000000000000000000000000000000081565b6101ad7f000000000000000000000000000000000000000000000000000000000000000081565b61019260025481565b61022f61022a36600461480e565b61043e565b005b61022f33600090815260208190526040902080546001600160a01b0319169055565b61019260045481565b6101ad7f000000000000000000000000000000000000000000000000000000000000000081565b61022f61076b565b61022f610299366004614849565b61086b565b6005546102b090610100900460ff1681565b604051901515815260200161019c565b61022f6102ce366004614849565b610b1c565b61022f6102e1366004614849565b610c3b565b6102f96102f436600461488a565b610f53565b60405161019c919061496b565b61022f610314366004614a11565b61108e565b61022f610327366004614af0565b61226c565b61022f6127f3565b6005546102b09060ff1681565b61022f61034f366004614849565b6128fd565b61022f610362366004614b12565b612a1f565b61022f610375366004614af0565b6138dc565b61022f610388366004614b6f565b613be4565b6101ad61039b366004614b9b565b6000602081905290815260409020546001600160a01b031681565b61022f6103c4366004614b9b565b614245565b6101ad7f000000000000000000000000000000000000000000000000000000000000000081565b61022f6103fe366004614849565b6142b1565b61022f610411366004614b6f565b6143d3565b6001546000906001600160a01b031661042e57503390565b506001546001600160a01b031690565b32331461044a57600080fd5b600554610100900460ff161561047b5760405162461bcd60e51b815260040161047290614bb8565b60405180910390fd5b6000610485610416565b604051636e6f99cd60e11b81529091506001600160a01b037f0000000000000000000000000000000000000000000000000000000000000000169063dcdf339a906104d89084908a908a90600401614bd6565b602060405180830381865afa1580156104f5573d6000803e3d6000fd5b505050506040513d601f19601f820116820180604052508101906105199190614c02565b6105355760405162461bcd60e51b815260040161047290614c1f565b604051632e21e28b60e21b81526000906001600160a01b037f0000000000000000000000000000000000000000000000000000000000000000169063b8878a2c906105889085908b908b90600401614bd6565b6101a060405180830381865afa1580156105a6573d6000803e3d6000fd5b505050506040513d601f19601f820116820180604052508101906105ca9190614c4c565b9050600354816101600151436105e09190614d15565b10156105fe5760405162461bcd60e51b815260040161047290614d2c565b83158061061b57508060a001516106175784841061061b565b8484115b6106375760405162461bcd60e51b815260040161047290614d54565b82158061065457508060a0015161065057848311610654565b8483105b6106705760405162461bcd60e51b815260040161047290614d76565b6101208101859052610140810185905260e081018490526101008101839052604051635bb3b04560e11b81526001600160a01b037f0000000000000000000000000000000000000000000000000000000000000000169063b767608a906106db908490600401614d98565b600060405180830381600087803b1580156106f557600080fd5b505af1158015610709573d6000803e3d6000fd5b50506040805189815260208101899052908101879052606081018690528992506001600160a01b03851691507f21e15d62c2ece17c1dc11c5fa45dcefdc6f99f199aa111d1363ff242f23e1c5c9060800160405180910390a350505050505050565b7f00000000000000000000000000000000000000000000000000000000000000006001600160a01b03166312d43a516040518163ffffffff1660e01b8152600401602060405180830381865afa1580156107c9573d6000803e3d6000fd5b505050506040513d601f19601f820116820180604052508101906107ed9190614e38565b6001600160a01b0316336001600160a01b03161461081d5760405162461bcd60e51b815260040161047290614e55565b6005805460ff8082161560ff1990921682179092556040519116151581527f0e2fb031ee032dc02d8011dc50b816eb450cf856abd8261680dac74f72165bd2906020015b60405180910390a1565b32331461087757600080fd5b600554610100900460ff161561089f5760405162461bcd60e51b815260040161047290614bb8565b60006108a9610416565b60405163b66e6b0560e01b8152600481018490529091506000906001600160a01b037f0000000000000000000000000000000000000000000000000000000000000000169063b66e6b05906024016101e060405180830381865afa158015610915573d6000803e3d6000fd5b505050506040513d601f19601f820116820180604052508101906109399190614f0a565b8051602082015191925090158015906109635750600454826020015161095f9190614f8d565b4310155b61097f5760405162461bcd60e51b815260040161047290614fa5565b826001600160a01b031681600001516001600160a01b0316146109b45760405162461bcd60e51b815260040161047290614fcb565b60008160e00151116109d85760405162461bcd60e51b815260040161047290614ff3565b604051630195728b60e71b815260048101859052600160248201527f00000000000000000000000000000000000000000000000000000000000000006001600160a01b03169063cab9458090604401600060405180830381600087803b158015610a4157600080fd5b505af1158015610a55573d6000803e3d6000fd5b50505050608081015160405163373873db60e11b81527f00000000000000000000000000000000000000000000000000000000000000006001600160a01b03811692636e70e7b692610aac92918891600401615024565b600060405180830381600087803b158015610ac657600080fd5b505af1158015610ada573d6000803e3d6000fd5b50505050837f3adaa586cdbe84dd24e45bd7dada6da933d7c2d1c7b4e4cd02fce033356decb183604051610b0e91906150f6565b60405180910390a250505050565b7f00000000000000000000000000000000000000000000000000000000000000006001600160a01b03166312d43a516040518163ffffffff1660e01b8152600401602060405180830381865afa158015610b7a573d6000803e3d6000fd5b505050506040513d601f19601f82011682018060405250810190610b9e9190614e38565b6001600160a01b0316336001600160a01b031614610bce5760405162461bcd60e51b815260040161047290614e55565b60008111610bee5760405162461bcd60e51b815260040161047290615105565b600281905560408051818152600991810191909152686d6178506f7344616960b81b606082015260208101829052600080516020615558833981519152906080015b60405180910390a150565b323314610c4757600080fd5b600554610100900460ff1615610c6f5760405162461bcd60e51b815260040161047290614bb8565b6000610c79610416565b60405163b66e6b0560e01b8152600481018490529091506000906001600160a01b037f0000000000000000000000000000000000000000000000000000000000000000169063b66e6b05906024016101e060405180830381865afa158015610ce5573d6000803e3d6000fd5b505050506040513d601f19601f82011682018060405250810190610d099190614f0a565b805160208201519192509015801590610d3357506004548260200151610d2f9190614f8d565b4310155b610d4f5760405162461bcd60e51b815260040161047290614fa5565b826001600160a01b031681600001516001600160a01b031614610d845760405162461bcd60e51b815260040161047290614fcb565b60e081015115610da65760405162461bcd60e51b815260040161047290614ff3565b604051630195728b60e71b815260048101859052600060248201527f00000000000000000000000000000000000000000000000000000000000000006001600160a01b03169063cab9458090604401600060405180830381600087803b158015610e0f57600080fd5b505af1158015610e23573d6000803e3d6000fd5b505050602082015160408084015190516024810192909252604482015260009150309060640160408051601f198184030181529181526020820180516001600160e01b031663a2a3c0cb60e01b17905251610e7e9190615126565b600060405180830381855af49150503d8060008114610eb9576040519150601f19603f3d011682016040523d82523d6000602084013e610ebe565b606091505b5050905080610f14578160200151846001600160a01b03167f60e497734ddabcd7293fd91739aaf65cf525eb539c97be528125a235a89288d88460400151604051610f0b91815260200190565b60405180910390a35b847f3adaa586cdbe84dd24e45bd7dada6da933d7c2d1c7b4e4cd02fce033356decb184604051610f4491906150f6565b60405180910390a25050505050565b6001600160a01b03838116600090815260208190526040902054606091163314610fb75760405162461bcd60e51b81526020600482015260156024820152741111531151d0551157d393d517d054141493d59151605a1b6044820152606401610472565b600180546001600160a01b0319166001600160a01b03861617905560405160009081903090610fe99087908790615142565b600060405180830381855af49150503d8060008114611024576040519150601f19603f3d011682016040523d82523d6000602084013e611029565b606091505b5091509150816110755760448151101561104257600080fd5b6004810190508080602001905181019061105c9190615152565b60405162461bcd60e51b8152600401610472919061496b565b600180546001600160a01b031916905595945050505050565b32331461109a57600080fd5b600554610100900460ff16156110c25760405162461bcd60e51b815260040161047290614bb8565b60055460ff16156110fe5760405162461bcd60e51b815260206004820152600660248201526514105554d15160d21b6044820152606401610472565b60007f00000000000000000000000000000000000000000000000000000000000000006001600160a01b0316633078fff56040518163ffffffff1660e01b8152600401602060405180830381865afa15801561115e573d6000803e3d6000fd5b505050506040513d601f19601f820116820180604052508101906111829190614e38565b90506000816001600160a01b03166335b03c176040518163ffffffff1660e01b8152600401602060405180830381865afa1580156111c4573d6000803e3d6000fd5b505050506040513d601f19601f820116820180604052508101906111e89190614e38565b905060006111f4610416565b90507f00000000000000000000000000000000000000000000000000000000000000006001600160a01b031663f65d9dbe6040518163ffffffff1660e01b8152600401602060405180830381865afa158015611254573d6000803e3d6000fd5b505050506040513d601f19601f8201168201806040525081019061127891906151ff565b6020890151604051634bf3ccad60e11b81526001600160a01b037f000000000000000000000000000000000000000000000000000000000000000016916397e7995a916112c9918691600401615218565b602060405180830381865afa1580156112e6573d6000803e3d6000fd5b505050506040513d601f19601f8201168201806040525081019061130a91906151ff565b60208a0151604051639c8912f160e01b81526001600160a01b037f00000000000000000000000000000000000000000000000000000000000000001691639c8912f19161135b918791600401615218565b602060405180830381865afa158015611378573d6000803e3d6000fd5b505050506040513d601f19601f8201168201806040525081019061139c91906151ff565b60208b01516040516307218dad60e21b81526001600160a01b037f00000000000000000000000000000000000000000000000000000000000000001691631c8636b4916113ed918891600401615218565b602060405180830381865afa15801561140a573d6000803e3d6000fd5b505050506040513d601f19601f8201168201806040525081019061142e91906151ff565b6114389190614f8d565b6114429190614f8d565b106114855760405162461bcd60e51b815260206004820152601360248201527226a0ac2faa2920a222a9afa822a92fa820a4a960691b6044820152606401610472565b7f00000000000000000000000000000000000000000000000000000000000000006001600160a01b0316638049fde76040518163ffffffff1660e01b8152600401602060405180830381865afa1580156114e3573d6000803e3d6000fd5b505050506040513d601f19601f8201168201806040525081019061150791906151ff565b60405163f7b3c6fd60e01b81526001600160a01b0383811660048301527f0000000000000000000000000000000000000000000000000000000000000000169063f7b3c6fd90602401602060405180830381865afa15801561156d573d6000803e3d6000fd5b505050506040513d601f19601f8201168201806040525081019061159191906151ff565b106115ae5760405162461bcd60e51b815260040161047290615231565b600254886080015111156115f45760405162461bcd60e51b815260206004820152600d60248201526c41424f56455f4d41585f504f5360981b6044820152606401610472565b602088015160405163066c581160e11b815260048101919091526001600160a01b03831690630cd8b02290602401602060405180830381865afa15801561163f573d6000803e3d6000fd5b505050506040513d601f19601f8201168201806040525081019061166391906151ff565b8860e001518960800151611677919061525d565b10156116b55760405162461bcd60e51b815260206004820152600d60248201526c42454c4f575f4d494e5f504f5360981b6044820152606401610472565b60008860e0015111801561173b5750602088015160405163059a992d60e41b815260048101919091526001600160a01b038316906359a992d090602401602060405180830381865afa15801561170f573d6000803e3d6000fd5b505050506040513d601f19601f8201168201806040525081019061173391906151ff565b8860e0015110155b80156117b957506020880151604051630a06da4f60e21b815260048101919091526001600160a01b0383169063281b693c90602401602060405180830381865afa15801561178d573d6000803e3d6000fd5b505050506040513d601f19601f820116820180604052508101906117b191906151ff565b8860e0015111155b6117fa5760405162461bcd60e51b815260206004820152601260248201527113115591549051d157d25390d3d4949150d560721b6044820152606401610472565b85158061190b575060006001600160a01b037f00000000000000000000000000000000000000000000000000000000000000001663265aa62161183e60018a614d15565b6040518263ffffffff1660e01b815260040161185c91815260200190565b602060405180830381865afa158015611879573d6000803e3d6000fd5b505050506040513d601f19601f8201168201806040525081019061189d9190614e38565b6040516370a0823160e01b81526001600160a01b03848116600483015291909116906370a0823190602401602060405180830381865afa1580156118e5573d6000803e3d6000fd5b505050506040513d601f19601f8201168201806040525081019061190991906151ff565b115b6119655760405162461bcd60e51b815260206004820152602560248201527f4e4f5f434f52524553504f4e44494e475f4e46545f5350524541445f5245445560448201526421aa24a7a760d91b6064820152608401610472565b610100880151158061199957508760c0015161198c578760a0015188610100015110611999565b8760a00151886101000151115b6119b55760405162461bcd60e51b815260040161047290614d54565b61012088015115806119e957508760c001516119dc578760a00151886101200151116119e9565b8760a00151886101200151105b611a055760405162461bcd60e51b815260040161047290614d76565b60007f00000000000000000000000000000000000000000000000000000000000000006001600160a01b0316637ea95f3260008b602001518c60c001518d60e001518e60800151611a56919061525d565b6040516001600160e01b031960e087901b168152600481019490945260248401929092521515604483015260648201526084016040805180830381865afa158015611aa5573d6000803e3d6000fd5b505050506040513d601f19601f82011682018060405250810190611ac9919061527c565b5090507f00000000000000000000000000000000000000000000000000000000000000006001600160a01b03166380f6cfc26040518163ffffffff1660e01b8152600401602060405180830381865afa158015611b2a573d6000803e3d6000fd5b505050506040513d601f19601f82011682018060405250810190611b4e91906151ff565b60e08a0151611b5d908361525d565b1115611b7b5760405162461bcd60e51b8152600401610472906152a0565b608089015160405163373873db60e11b81527f00000000000000000000000000000000000000000000000000000000000000006001600160a01b03811692636e70e7b692611bcf9287929091600401615024565b600060405180830381600087803b158015611be957600080fd5b505af1158015611bfd573d6000803e3d6000fd5b5060009250611c0a915050565b886002811115611c1c57611c1c6152cf565b14611f3857602089015160405163226a27ad60e11b81526000916001600160a01b037f000000000000000000000000000000000000000000000000000000000000000016916344d44f5a91611c7691879190600401615218565b602060405180830381865afa158015611c93573d6000803e3d6000fd5b505050506040513d601f19601f82011682018060405250810190611cb791906151ff565b90507f00000000000000000000000000000000000000000000000000000000000000006001600160a01b031663d3b5fe70604051806101a00160405280866001600160a01b031681526020018d6020015181526020018481526020018d60800151815260200160008c11611d2c576000611dc5565b6001600160a01b037f000000000000000000000000000000000000000000000000000000000000000016633dae10a0611d6660018f614d15565b6040518263ffffffff1660e01b8152600401611d8491815260200190565b602060405180830381865afa158015611da1573d6000803e3d6000fd5b505050506040513d601f19601f82011682018060405250810190611dc591906151ff565b81526020018d60c00151151581526020018d60e0015181526020018d610100015181526020018d610120015181526020018d60a0015181526020018d60a00151815260200143815260200160008152506040518263ffffffff1660e01b8152600401611e319190614d98565b600060405180830381600087803b158015611e4b57600080fd5b505af1158015611e5f573d6000803e3d6000fd5b5050505060208a0151604051630ec5706160e41b81527f00000000000000000000000000000000000000000000000000000000000000006001600160a01b03169163ec57061091611eb891879186908f906004016152e5565b600060405180830381600087803b158015611ed257600080fd5b505af1158015611ee6573d6000803e3d6000fd5b505050508960200151836001600160a01b03167fdfabd6f206f17b7f2e1f9e0d33c40d30d1e8d7b6a4f520a03fdc1c181105934383604051611f2a91815260200190565b60405180910390a3506121de565b6000846001600160a01b031663fa8dd4988b6020015160008d60e001518e60800151611f64919061525d565b6040518463ffffffff1660e01b8152600401611f8293929190615322565b6020604051808303816000875af1158015611fa1573d6000803e3d6000fd5b505050506040513d601f19601f82011682018060405250810190611fc591906151ff565b90507f00000000000000000000000000000000000000000000000000000000000000006001600160a01b031663c76faf786040518060c00160405280604051806101400160405280886001600160a01b031681526020018f60200151815260200160008152602001600081526020018f608001518152602001600081526020018f60c00151151581526020018f60e0015181526020018f610100015181526020018f61012001518152508152602001600081526020018d60a0015181526020018a815260200160008c1161209a576000612133565b6001600160a01b037f000000000000000000000000000000000000000000000000000000000000000016633dae10a06120d460018f614d15565b6040518263ffffffff1660e01b81526004016120f291815260200190565b602060405180830381865afa15801561210f573d6000803e3d6000fd5b505050506040513d601f19601f8201168201806040525081019061213391906151ff565b815260200160008152508360016040518463ffffffff1660e01b815260040161215e9392919061534a565b600060405180830381600087803b15801561217857600080fd5b505af115801561218c573d6000803e3d6000fd5b505050508960200151836001600160a01b0316827f3e544118c04e3bb18b669475695cd270ba0e41fb13177483f01c14222de62a8660016040516121d4911515815260200190565b60405180910390a4505b6040516326e2ada160e21b81526001600160a01b03838116600483015286811660248301527f00000000000000000000000000000000000000000000000000000000000000001690639b8ab68490604401600060405180830381600087803b15801561224957600080fd5b505af115801561225d573d6000803e3d6000fd5b50505050505050505050505050565b32331461227857600080fd5b600554610100900460ff16156122a05760405162461bcd60e51b815260040161047290614bb8565b60006122aa610416565b905060007f00000000000000000000000000000000000000000000000000000000000000006001600160a01b031663a3a80ffe8386866040518463ffffffff1660e01b81526004016122fe93929190614bd6565b61014060405180830381865afa15801561231c573d6000803e3d6000fd5b505050506040513d601f19601f820116820180604052508101906123409190615371565b905060007f00000000000000000000000000000000000000000000000000000000000000006001600160a01b0316638c8ff1d58487876040518463ffffffff1660e01b815260040161239493929190614bd6565b60c060405180830381865afa1580156123b1573d6000803e3d6000fd5b505050506040513d601f19601f820116820180604052508101906123d5919061538e565b90507f00000000000000000000000000000000000000000000000000000000000000006001600160a01b0316638049fde76040518163ffffffff1660e01b8152600401602060405180830381865afa158015612435573d6000803e3d6000fd5b505050506040513d601f19601f8201168201806040525081019061245991906151ff565b60405163f7b3c6fd60e01b81526001600160a01b0385811660048301527f0000000000000000000000000000000000000000000000000000000000000000169063f7b3c6fd90602401602060405180830381865afa1580156124bf573d6000803e3d6000fd5b505050506040513d601f19601f820116820180604052508101906124e391906151ff565b106125005760405162461bcd60e51b815260040161047290615231565b8060a00151156125495760405162461bcd60e51b81526020600482015260146024820152731053149150511657d091525391d7d0d313d4d15160621b6044820152606401610472565b60008260e001511161256d5760405162461bcd60e51b81526004016104729061540e565b60007f00000000000000000000000000000000000000000000000000000000000000006001600160a01b0316633078fff56040518163ffffffff1660e01b8152600401602060405180830381865afa1580156125cd573d6000803e3d6000fd5b505050506040513d601f19601f820116820180604052508101906125f19190614e38565b6001600160a01b031663fa8dd4988760016402540be4008760e0015187602001518960600151612621919061525d565b61262b919061525d565b6126359190615430565b6040518463ffffffff1660e01b815260040161265393929190615322565b6020604051808303816000875af1158015612672573d6000803e3d6000fd5b505050506040513d601f19601f8201168201806040525081019061269691906151ff565b90507f00000000000000000000000000000000000000000000000000000000000000006001600160a01b031663c76faf786040518060c00160405280604051806101400160405280896001600160a01b031681526020018b81526020018a81526020016000815260200160008152602001600081526020016000151581526020016000815260200160008152602001600081525081526020016000815260200160008152602001600081526020016000815260200160008152508360006040518463ffffffff1660e01b81526004016127719392919061534a565b600060405180830381600087803b15801561278b57600080fd5b505af115801561279f573d6000803e3d6000fd5b5050505085846001600160a01b0316827f3e544118c04e3bb18b669475695cd270ba0e41fb13177483f01c14222de62a8660006040516127e3911515815260200190565b60405180910390a4505050505050565b7f00000000000000000000000000000000000000000000000000000000000000006001600160a01b03166312d43a516040518163ffffffff1660e01b8152600401602060405180830381865afa158015612851573d6000803e3d6000fd5b505050506040513d601f19601f820116820180604052508101906128759190614e38565b6001600160a01b0316336001600160a01b0316146128a55760405162461bcd60e51b815260040161047290614e55565b6005805460ff610100808304821615810261ff001990931692909217928390556040517fc3a6f986261de9467c2838c6df8ef74f9107855159205600c0bc7a14cdfd3888936108619390049091161515815260200190565b7f00000000000000000000000000000000000000000000000000000000000000006001600160a01b03166312d43a516040518163ffffffff1660e01b8152600401602060405180830381865afa15801561295b573d6000803e3d6000fd5b505050506040513d601f19601f8201168201806040525081019061297f9190614e38565b6001600160a01b0316336001600160a01b0316146129af5760405162461bcd60e51b815260040161047290614e55565b600081116129cf5760405162461bcd60e51b815260040161047290615105565b600481905560408051818152601391810191909152721b585c9ad95d13dc99195c9cd51a5b595bdd5d606a1b60608201526020810182905260008051602061555883398151915290608001610c30565b323314612a2b57600080fd5b600554610100900460ff1615612a535760405162461bcd60e51b815260040161047290614bb8565b6000612a5d610416565b905060018210158015612a71575060058211155b612aae5760405162461bcd60e51b815260206004820152600e60248201526d57524f4e475f4e46545f5459504560901b6044820152606401610472565b6001600160a01b03808216907f00000000000000000000000000000000000000000000000000000000000000001663265aa621612aec600186614d15565b6040518263ffffffff1660e01b8152600401612b0a91815260200190565b602060405180830381865afa158015612b27573d6000803e3d6000fd5b505050506040513d601f19601f82011682018060405250810190612b4b9190614e38565b6001600160a01b0316636352211e856040518263ffffffff1660e01b8152600401612b7891815260200190565b602060405180830381865afa158015612b95573d6000803e3d6000fd5b505050506040513d601f19601f82011682018060405250810190612bb99190614e38565b6001600160a01b031614612bf85760405162461bcd60e51b81526020600482015260066024820152651393d7d3919560d21b6044820152606401610472565b7f00000000000000000000000000000000000000000000000000000000000000006001600160a01b031663f8d24b486040518163ffffffff1660e01b8152600401602060405180830381865afa158015612c56573d6000803e3d6000fd5b505050506040513d601f19601f82011682018060405250810190612c7a91906151ff565b60405163aa3b7d7760e01b8152600481018590527f00000000000000000000000000000000000000000000000000000000000000006001600160a01b03169063aa3b7d7790602401602060405180830381865afa158015612cdf573d6000803e3d6000fd5b505050506040513d601f19601f82011682018060405250810190612d0391906151ff565b612d0d9190614f8d565b431015612d4f5760405162461bcd60e51b815260206004820152601060248201526f535543434553535f54494d454c4f434b60801b6044820152606401610472565b612db060405180610140016040528060006001600160a01b0316815260200160008152602001600081526020016000815260200160008152602001600081526020016000151581526020016000815260200160008152602001600081525090565b6003886003811115612dc457612dc46152cf565b03612e7b57604051636e6f99cd60e11b81526001600160a01b037f0000000000000000000000000000000000000000000000000000000000000000169063dcdf339a90612e19908a908a908a90600401614bd6565b602060405180830381865afa158015612e36573d6000803e3d6000fd5b505050506040513d601f19601f82011682018060405250810190612e5a9190614c02565b612e765760405162461bcd60e51b815260040161047290614c1f565b613076565b6040516351d407ff60e11b81526001600160a01b037f0000000000000000000000000000000000000000000000000000000000000000169063a3a80ffe90612ecb908a908a908a90600401614bd6565b61014060405180830381865afa158015612ee9573d6000803e3d6000fd5b505050506040513d601f19601f82011682018060405250810190612f0d9190615371565b905060008160e0015111612f335760405162461bcd60e51b81526004016104729061540e565b6002886003811115612f4757612f476152cf565b03612fc2576000612f5782614664565b905081610120015160001480612f8757508160c00151612f7e578161012001518110612f87565b81610120015181115b612fbc5760405162461bcd60e51b8152602060048201526006602482015265121054d7d4d360d21b6044820152606401610472565b50613076565b6001886003811115612fd657612fd66152cf565b141580612fe857506000816101200151115b61301c5760405162461bcd60e51b81526020600482015260056024820152641393d7d4d360da1b6044820152606401610472565b6000886003811115613030576130306152cf565b14158061304257506000816101000151115b6130765760405162461bcd60e51b815260206004820152600560248201526404e4f5f54560dc1b6044820152606401610472565b60006040518060800160405280896001600160a01b031681526020018881526020018781526020018a60038111156130b0576130b06152cf565b905260405163108c3d4960e11b81529091506001600160a01b037f000000000000000000000000000000000000000000000000000000000000000016906321187a929061310190849060040161549d565b602060405180830381865afa15801561311e573d6000803e3d6000fd5b505050506040513d601f19601f820116820180604052508101906131429190614c02565b15806131d65750604051633f1b72bf60e21b81526001600160a01b037f0000000000000000000000000000000000000000000000000000000000000000169063fc6dcafc9061319590849060040161549d565b602060405180830381865afa1580156131b2573d6000803e3d6000fd5b505050506040513d601f19601f820116820180604052508101906131d69190614c02565b1561380f57600060038a60038111156131f1576131f16152cf565b0361340957604051632e21e28b60e21b81526000906001600160a01b037f0000000000000000000000000000000000000000000000000000000000000000169063b8878a2c90613249908d908d908d90600401614bd6565b6101a060405180830381865afa158015613267573d6000803e3d6000fd5b505050506040513d601f19601f8201168201806040525081019061328b9190614c4c565b90508060c0015181606001516132a1919061525d565b602082015160a0830151604051633f54af9960e11b81526000600482018190526024820193909352901515604482015260648101839052919350906001600160a01b037f00000000000000000000000000000000000000000000000000000000000000001690637ea95f32906084016040805180830381865afa15801561332c573d6000803e3d6000fd5b505050506040513d601f19601f82011682018060405250810190613350919061527c565b5090507f00000000000000000000000000000000000000000000000000000000000000006001600160a01b03166380f6cfc26040518163ffffffff1660e01b8152600401602060405180830381865afa1580156133b1573d6000803e3d6000fd5b505050506040513d601f19601f820116820180604052508101906133d591906151ff565b60c08301516133e4908361525d565b11156134025760405162461bcd60e51b8152600401610472906152a0565b50506134cf565b6402540be4008360e001517f00000000000000000000000000000000000000000000000000000000000000006001600160a01b0316638c8ff1d58c8c8c6040518463ffffffff1660e01b815260040161346493929190614bd6565b60c060405180830381865afa158015613481573d6000803e3d6000fd5b505050506040513d601f19601f820116820180604052508101906134a5919061538e565b6020015185606001516134b8919061525d565b6134c2919061525d565b6134cc9190615430565b90505b604051633348540360e11b81526001600160a01b037f00000000000000000000000000000000000000000000000000000000000000001690636690a8069061351f9087908c908690600401614bd6565b600060405180830381600087803b15801561353957600080fd5b505af115801561354d573d6000803e3d6000fd5b5050505060007f00000000000000000000000000000000000000000000000000000000000000006001600160a01b0316633078fff56040518163ffffffff1660e01b8152600401602060405180830381865afa1580156135b1573d6000803e3d6000fd5b505050506040513d601f19601f820116820180604052508101906135d59190614e38565b6001600160a01b031663fa8dd4988a60038e60038111156135f8576135f86152cf565b14613604576003613607565b60025b856040518463ffffffff1660e01b815260040161362693929190615322565b6020604051808303816000875af1158015613645573d6000803e3d6000fd5b505050506040513d601f19601f8201168201806040525081019061366991906151ff565b90507f00000000000000000000000000000000000000000000000000000000000000006001600160a01b031663817fa1a46040518060c00160405280886001600160a01b031681526020018a81526020018d6001600160a01b031681526020018c81526020018b81526020018e60038111156136e7576136e76152cf565b815250836040518363ffffffff1660e01b81526004016137089291906154ab565b600060405180830381600087803b15801561372257600080fd5b505af1158015613736573d6000803e3d6000fd5b505060405163308f221b60e21b81526001600160a01b037f000000000000000000000000000000000000000000000000000000000000000016925063c23c886c9150613788908690899060040161550b565b600060405180830381600087803b1580156137a257600080fd5b505af11580156137b6573d6000803e3d6000fd5b50505050888a6001600160a01b0316866001600160a01b03167f6d87222414c5850caf1d385b1e080a771b505825b082a2162d0f4af5ffc86c008460405161380091815260200190565b60405180910390a450506138d1565b6040516346ea285b60e01b81526001600160a01b037f000000000000000000000000000000000000000000000000000000000000000016906346ea285b9061385d908490879060040161550b565b600060405180830381600087803b15801561387757600080fd5b505af115801561388b573d6000803e3d6000fd5b5050505086886001600160a01b0316846001600160a01b03167fde7da272dc52e28c3b33c5c74b461da89b05bd790d845e82db2f69bbf08108e760405160405180910390a45b505050505050505050565b3233146138e857600080fd5b600554610100900460ff16156139105760405162461bcd60e51b815260040161047290614bb8565b600061391a610416565b604051636e6f99cd60e11b81529091506001600160a01b037f0000000000000000000000000000000000000000000000000000000000000000169063dcdf339a9061396d90849087908790600401614bd6565b602060405180830381865afa15801561398a573d6000803e3d6000fd5b505050506040513d601f19601f820116820180604052508101906139ae9190614c02565b6139ca5760405162461bcd60e51b815260040161047290614c1f565b604051632e21e28b60e21b81526000906001600160a01b037f0000000000000000000000000000000000000000000000000000000000000000169063b8878a2c90613a1d90859088908890600401614bd6565b6101a060405180830381865afa158015613a3b573d6000803e3d6000fd5b505050506040513d601f19601f82011682018060405250810190613a5f9190614c4c565b905060035481610160015143613a759190614d15565b1015613a935760405162461bcd60e51b815260040161047290614d2c565b60405163b4b0f56760e01b81526001600160a01b037f0000000000000000000000000000000000000000000000000000000000000000169063b4b0f56790613ae390859088908890600401614bd6565b600060405180830381600087803b158015613afd57600080fd5b505af1158015613b11573d6000803e3d6000fd5b50505050606081015160405163373873db60e11b81527f00000000000000000000000000000000000000000000000000000000000000006001600160a01b03811692636e70e7b692613b6892918791600401615024565b600060405180830381600087803b158015613b8257600080fd5b505af1158015613b96573d6000803e3d6000fd5b5050505083826001600160a01b03167ff1b38881d7f4b2b12141c5f39c5124545d6112532eb6afbe9630cdbde3ee53e985604051613bd691815260200190565b60405180910390a350505050565b323314613bf057600080fd5b600554610100900460ff1615613c185760405162461bcd60e51b815260040161047290614bb8565b6000613c22610416565b905060007f00000000000000000000000000000000000000000000000000000000000000006001600160a01b031663a3a80ffe8387876040518463ffffffff1660e01b8152600401613c7693929190614bd6565b61014060405180830381865afa158015613c94573d6000803e3d6000fd5b505050506040513d601f19601f82011682018060405250810190613cb89190615371565b905060007f00000000000000000000000000000000000000000000000000000000000000006001600160a01b0316638c8ff1d58488886040518463ffffffff1660e01b8152600401613d0c93929190614bd6565b60c060405180830381865afa158015613d29573d6000803e3d6000fd5b505050506040513d601f19601f82011682018060405250810190613d4d919061538e565b905060008260e0015111613d735760405162461bcd60e51b81526004016104729061540e565b60008260e001516064604b8560a00151613d8d919061525d565b613d979190615430565b613da19190615430565b9050841580613de057508260c00151613dcc57808360a00151613dc49190614f8d565b851115613de0565b808360a00151613ddc9190614d15565b8510155b613e195760405162461bcd60e51b815260206004820152600a602482015269534c5f544f4f5f42494760b01b6044820152606401610472565b6003546080830151613e2b9043614d15565b1015613e495760405162461bcd60e51b815260040161047290614d2c565b60007f00000000000000000000000000000000000000000000000000000000000000006001600160a01b0316633078fff56040518163ffffffff1660e01b8152600401602060405180830381865afa158015613ea9573d6000803e3d6000fd5b505050506040513d601f19601f82011682018060405250810190613ecd9190614e38565b9050851580613fa95750806001600160a01b03166335b03c176040518163ffffffff1660e01b8152600401602060405180830381865afa158015613f15573d6000803e3d6000fd5b505050506040513d601f19601f82011682018060405250810190613f399190614e38565b6001600160a01b03166324abd3fb896040518263ffffffff1660e01b8152600401613f6691815260200190565b602060405180830381865afa158015613f83573d6000803e3d6000fd5b505050506040513d601f19601f82011682018060405250810190613fa79190614c02565b155b1561407d5760405163a354418160e01b81526001600160a01b037f0000000000000000000000000000000000000000000000000000000000000000169063a3544181906140009088908c908c908c90600401615531565b600060405180830381600087803b15801561401a57600080fd5b505af115801561402e573d6000803e3d6000fd5b5050604080518a8152602081018a90528b93506001600160a01b03891692507f1fc4a6c7ffe506697979b8ed54dc4135cd1ecd26a2745f70b760a2492222b316910160405180910390a361423b565b6000816001600160a01b031663fa8dd4988a60046402540be4008960e0015189602001518b606001516140b0919061525d565b6140ba919061525d565b6140c49190615430565b6040518463ffffffff1660e01b81526004016140e293929190615322565b6020604051808303816000875af1158015614101573d6000803e3d6000fd5b505050506040513d601f19601f8201168201806040525081019061412591906151ff565b6040805160c080820183526001600160a01b038a81168352602083018e81528385018e815260a0808d015160608701908152948d01511515608087019081529086018f81529651635c109dfd60e11b81526004810189905295518416602487015291516044860152516064850152915160848401529051151560a4830152915160c482015291925083169063b8213bfa9060e401600060405180830381600087803b1580156141d357600080fd5b505af11580156141e7573d6000803e3d6000fd5b5050505088866001600160a01b0316827ffdfffd671d06639f57ee329f42ea52018346eb90ed43679721e81cc12bfa10548b8b604051614231929190918252602082015260400190565b60405180910390a4505b5050505050505050565b3233146142825760405162461bcd60e51b815260206004820152600b60248201526a1393d7d0d3d395149050d560aa1b6044820152606401610472565b33600090815260208190526040902080546001600160a01b0319166001600160a01b0392909216919091179055565b7f00000000000000000000000000000000000000000000000000000000000000006001600160a01b03166312d43a516040518163ffffffff1660e01b8152600401602060405180830381865afa15801561430f573d6000803e3d6000fd5b505050506040513d601f19601f820116820180604052508101906143339190614e38565b6001600160a01b0316336001600160a01b0316146143635760405162461bcd60e51b815260040161047290614e55565b600081116143835760405162461bcd60e51b815260040161047290615105565b600381905560408051818152601391810191909152726c696d69744f726465727354696d656c6f636b60681b60608201526020810182905260008051602061555883398151915290608001610c30565b3233146143df57600080fd5b600554610100900460ff16156144075760405162461bcd60e51b815260040161047290614bb8565b6000614411610416565b905060007f00000000000000000000000000000000000000000000000000000000000000006001600160a01b031663a3a80ffe8387876040518463ffffffff1660e01b815260040161446593929190614bd6565b61014060405180830381865afa158015614483573d6000803e3d6000fd5b505050506040513d601f19601f820116820180604052508101906144a79190615371565b905060007f00000000000000000000000000000000000000000000000000000000000000006001600160a01b0316638c8ff1d58488886040518463ffffffff1660e01b81526004016144fb93929190614bd6565b60c060405180830381865afa158015614518573d6000803e3d6000fd5b505050506040513d601f19601f8201168201806040525081019061453c919061538e565b905060008260e00151116145625760405162461bcd60e51b81526004016104729061540e565b60035460608201516145749043614d15565b10156145925760405162461bcd60e51b815260040161047290614d2c565b604051637fdb96f360e01b81526001600160a01b037f00000000000000000000000000000000000000000000000000000000000000001690637fdb96f3906145e49086908a908a908a90600401615531565b600060405180830381600087803b1580156145fe57600080fd5b505af1158015614612573d6000803e3d6000fd5b505060408051888152602081018890528993506001600160a01b03871692507f7e06a81c7a47891ccc7455b5ccb2ed850e32bb655ccda67eb3ebaaeed83242a4910160405180910390a3505050505050565b60007f00000000000000000000000000000000000000000000000000000000000000006001600160a01b0316636bc84d598360000151846020015185604001518660a001518760c001516402540be4007f00000000000000000000000000000000000000000000000000000000000000006001600160a01b0316638c8ff1d58b600001518c602001518d604001516040518463ffffffff1660e01b815260040161471093929190614bd6565b60c060405180830381865afa15801561472d573d6000803e3d6000fd5b505050506040513d601f19601f82011682018060405250810190614751919061538e565b602001518a60600151614764919061525d565b61476e9190615430565b60e08a8101516040519189901b6001600160e01b03191682526001600160a01b039790971660048201526024810195909552604485019390935260648401919091521515608483015260a482015260c481019190915260e401602060405180830381865afa1580156147e4573d6000803e3d6000fd5b505050506040513d601f19601f8201168201806040525081019061480891906151ff565b92915050565b600080600080600060a0868803121561482657600080fd5b505083359560208501359550604085013594606081013594506080013592509050565b60006020828403121561485b57600080fd5b5035919050565b6001600160a01b038116811461487757600080fd5b50565b803561488581614862565b919050565b60008060006040848603121561489f57600080fd5b83356148aa81614862565b9250602084013567ffffffffffffffff808211156148c757600080fd5b818601915086601f8301126148db57600080fd5b8135818111156148ea57600080fd5b8760208285010111156148fc57600080fd5b6020830194508093505050509250925092565b60005b8381101561492a578181015183820152602001614912565b83811115614939576000848401525b50505050565b6000815180845261495781602086016020860161490f565b601f01601f19169290920160200192915050565b60208152600061497e602083018461493f565b9392505050565b634e487b7160e01b600052604160045260246000fd5b604051610140810167ffffffffffffffff811182821017156149bf576149bf614985565b60405290565b6040516101a0810167ffffffffffffffff811182821017156149bf576149bf614985565b801515811461487757600080fd5b8035614885816149e9565b80356003811061488557600080fd5b60008060008060008587036101c0811215614a2b57600080fd5b61014080821215614a3b57600080fd5b614a4361499b565b9150614a4e8861487a565b82526020880135602083015260408801356040830152606088013560608301526080880135608083015260a088013560a0830152614a8e60c089016149f7565b60c083015260e088013560e0830152610100808901358184015250610120808901358184015250819650614ac3818901614a02565b9550505061016086013592506101808601359150614ae46101a0870161487a565b90509295509295909350565b60008060408385031215614b0357600080fd5b50508035926020909101359150565b60008060008060008060c08789031215614b2b57600080fd5b863560048110614b3a57600080fd5b95506020870135614b4a81614862565b95989597505050506040840135936060810135936080820135935060a0909101359150565b600080600060608486031215614b8457600080fd5b505081359360208301359350604090920135919050565b600060208284031215614bad57600080fd5b813561497e81614862565b602080825260049082015263444f4e4560e01b604082015260600190565b6001600160a01b039390931683526020830191909152604082015260600190565b8051614885816149e9565b600060208284031215614c1457600080fd5b815161497e816149e9565b6020808252600890820152671393d7d31253525560c21b604082015260600190565b805161488581614862565b60006101a08284031215614c5f57600080fd5b614c676149c5565b614c7083614c41565b815260208301516020820152604083015160408201526060830151606082015260808301516080820152614ca660a08401614bf7565b60a082015260c0838101519082015260e080840151908201526101008084015190820152610120808401519082015261014080840151908201526101608084015190820152610180928301519281019290925250919050565b634e487b7160e01b600052601160045260246000fd5b600082821015614d2757614d27614cff565b500390565b6020808252600e908201526d4c494d49545f54494d454c4f434b60901b604082015260600190565b602080825260089082015267057524f4e475f54560c41b604082015260600190565b60208082526008908201526715d493d391d7d4d360c21b604082015260600190565b81516001600160a01b031681526101a081016020830151602083015260408301516040830152606083015160608301526080830151608083015260a0830151614de560a084018215159052565b5060c0838101519083015260e08084015190830152610100808401519083015261012080840151908301526101408084015190830152610160808401519083015261018092830151929091019190915290565b600060208284031215614e4a57600080fd5b815161497e81614862565b602080825260089082015267474f565f4f4e4c5960c01b604082015260600190565b60006101408284031215614e8a57600080fd5b614e9261499b565b9050614e9d82614c41565b81526020820151602082015260408201516040820152606082015160608201526080820151608082015260a082015160a0820152614edd60c08301614bf7565b60c082015260e082015160e082015261010080830151818301525061012080830151818301525092915050565b60006101e08284031215614f1d57600080fd5b60405160c0810181811067ffffffffffffffff82111715614f4057614f40614985565b604052614f4d8484614e77565b81526101408301516020820152610160830151604082015261018083015160608201526101a083015160808201526101c09092015160a083015250919050565b60008219821115614fa057614fa0614cff565b500190565b6020808252600c908201526b15d0525517d512535153d55560a21b604082015260600190565b6020808252600e908201526d2727aa2faca7aaa92fa7a92222a960911b604082015260600190565b60208082526017908201527657524f4e475f4d41524b45545f4f524445525f5459504560481b604082015260600190565b6001600160a01b039384168152919092166020820152604081019190915260600190565b805180516001600160a01b031683526020810151602084015260408101516040840152606081015160608401526080810151608084015260a081015160a084015260c081015161509c60c085018215159052565b5060e081810151908401526101008082015190840152610120908101519083015260208101516101408301526040810151610160830152606081015161018083015260808101516101a083015260a001516101c090910152565b6101e081016148088284615048565b602080825260079082015266056414c55455f360cc1b604082015260600190565b6000825161513881846020870161490f565b9190910192915050565b8183823760009101908152919050565b60006020828403121561516457600080fd5b815167ffffffffffffffff8082111561517c57600080fd5b818401915084601f83011261519057600080fd5b8151818111156151a2576151a2614985565b604051601f8201601f19908116603f011681019083821181831017156151ca576151ca614985565b816040528281528760208487010111156151e357600080fd5b6151f483602083016020880161490f565b979650505050505050565b60006020828403121561521157600080fd5b5051919050565b6001600160a01b03929092168252602082015260400190565b6020808252601290820152714d41585f50454e44494e475f4f524445525360701b604082015260600190565b600081600019048311821515161561527757615277614cff565b500290565b6000806040838503121561528f57600080fd5b505080516020909101519092909150565b6020808252601590820152740a0a492868abe929aa08286a8bea89e9ebe90928e9605b1b604082015260600190565b634e487b7160e01b600052602160045260246000fd5b6001600160a01b038516815260208101849052604081018390526080810160038310615313576153136152cf565b82606083015295945050505050565b8381526060810160058410615339576153396152cf565b602082019390935260400152919050565b61022081016153598286615048565b836101e0830152821515610200830152949350505050565b6000610140828403121561538457600080fd5b61497e8383614e77565b600060c082840312156153a057600080fd5b60405160c0810181811067ffffffffffffffff821117156153c3576153c3614985565b8060405250825181526020830151602082015260408301516040820152606083015160608201526080830151608082015260a0830151615402816149e9565b60a08201529392505050565b6020808252600890820152674e4f5f545241444560c01b604082015260600190565b60008261544d57634e487b7160e01b600052601260045260246000fd5b500490565b60048110615462576154626152cf565b9052565b60018060a01b038151168252602081015160208301526040810151604083015260608101516154986060840182615452565b505050565b608081016148088284615466565b600060e08201905060018060a01b038085511683526020850151602084015280604086015116604084015250606084015160608301526080840151608083015260a08401516154fd60a0840182615452565b508260c08301529392505050565b60a081016155198285615466565b6001600160a01b039290921660809190910152919050565b6001600160a01b039490941684526020840192909252604083015260608201526080019056fe8cf3e35f6221b16e1670a3413180c9484bf5aa71787905909fa82a6a2662e9aba2646970667358221220cbcfbfdc031f4f0ee8229b2cebab7f81322a3712ae5019c1139dd57bc7533da264736f6c634300080f0033",
    "immutableReferences": {
        "9838": [
            {
                "length": 32,
                "start": 497
            },
            {
                "length": 32,
                "start": 1183
            },
            {
                "length": 32,
                "start": 1359
            },
            {
                "length": 32,
                "start": 1702
            },
            {
                "length": 32,
                "start": 1901
            },
            {
                "length": 32,
                "start": 2253
            },
            {
                "length": 32,
                "start": 2549
            },
            {
                "length": 32,
                "start": 2669
            },
            {
                "length": 32,
                "start": 2846
            },
            {
                "length": 32,
                "start": 3229
            },
            {
                "length": 32,
                "start": 3523
            },
            {
                "length": 32,
                "start": 4354
            },
            {
                "length": 32,
                "start": 4600
            },
            {
                "length": 32,
                "start": 4756
            },
            {
                "length": 32,
                "start": 4902
            },
            {
                "length": 32,
                "start": 5048
            },
            {
                "length": 32,
                "start": 5255
            },
            {
                "length": 32,
                "start": 5414
            },
            {
                "length": 32,
                "start": 6158
            },
            {
                "length": 32,
                "start": 7055
            },
            {
                "length": 32,
                "start": 7232
            },
            {
                "length": 32,
                "start": 7355
            },
            {
                "length": 32,
                "start": 7478
            },
            {
                "length": 32,
                "start": 8137
            },
            {
                "length": 32,
                "start": 8356
            },
            {
                "length": 32,
                "start": 8880
            },
            {
                "length": 32,
                "start": 9030
            },
            {
                "length": 32,
                "start": 9177
            },
            {
                "length": 32,
                "start": 9336
            },
            {
                "length": 32,
                "start": 9585
            },
            {
                "length": 32,
                "start": 9882
            },
            {
                "length": 32,
                "start": 10229
            },
            {
                "length": 32,
                "start": 10495
            },
            {
                "length": 32,
                "start": 10940
            },
            {
                "length": 32,
                "start": 11258
            },
            {
                "length": 32,
                "start": 11408
            },
            {
                "length": 32,
                "start": 11744
            },
            {
                "length": 32,
                "start": 11922
            },
            {
                "length": 32,
                "start": 12816
            },
            {
                "length": 32,
                "start": 13334
            },
            {
                "length": 32,
                "start": 13542
            },
            {
                "length": 32,
                "start": 13653
            },
            {
                "length": 32,
                "start": 13933
            },
            {
                "length": 32,
                "start": 14644
            },
            {
                "length": 32,
                "start": 14820
            },
            {
                "length": 32,
                "start": 15018
            },
            {
                "length": 32,
                "start": 15145
            },
            {
                "length": 32,
                "start": 15400
            },
            {
                "length": 32,
                "start": 15550
            },
            {
                "length": 32,
                "start": 15949
            },
            {
                "length": 32,
                "start": 16325
            },
            {
                "length": 32,
                "start": 17075
            },
            {
                "length": 32,
                "start": 17431
            },
            {
                "length": 32,
                "start": 17581
            },
            {
                "length": 32,
                "start": 17833
            },
            {
                "length": 32,
                "start": 18102
            }
        ],
        "9841": [
            {
                "length": 32,
                "start": 609
            },
            {
                "length": 32,
                "start": 7799
            },
            {
                "length": 32,
                "start": 12492
            },
            {
                "length": 32,
                "start": 12640
            },
            {
                "length": 32,
                "start": 14159
            },
            {
                "length": 32,
                "start": 14374
            }
        ],
        "9844": [
            {
                "length": 32,
                "start": 458
            },
            {
                "length": 32,
                "start": 6665
            },
            {
                "length": 32,
                "start": 6862
            },
            {
                "length": 32,
                "start": 13030
            },
            {
                "length": 32,
                "start": 13141
            },
            {
                "length": 32,
                "start": 18024
            }
        ],
        "9847": [
            {
                "length": 32,
                "start": 974
            },
            {
                "length": 32,
                "start": 8709
            }
        ]
    },
    "source": "// SPDX-License-Identifier: MIT\r\nimport './interfaces/StorageInterfaceV5.sol';\r\nimport './interfaces/GNSPairInfosInterfaceV6.sol';\r\nimport './interfaces/GNSReferralsInterfaceV6_2.sol';\r\nimport './Delegatable.sol';\r\n\r\npragma solidity 0.8.15;\r\n\r\ncontract GNSTradingV6_2 is Delegatable {\r\n\r\n    // Contracts (constant)\r\n    StorageInterfaceV5 public immutable storageT;\r\n    NftRewardsInterfaceV6 public immutable nftRewards;\r\n    GNSPairInfosInterfaceV6 public immutable pairInfos;\r\n    GNSReferralsInterfaceV6_2 public immutable referrals;\r\n\r\n    // Params (constant)\r\n    uint constant PRECISION = 1e10;\r\n    uint constant MAX_SL_P = 75;  // -75% PNL\r\n\r\n    // Params (adjustable)\r\n    uint public maxPosDai;            // 1e18 (eg. 75000 * 1e18)\r\n    uint public limitOrdersTimelock;  // block (eg. 30)\r\n    uint public marketOrdersTimeout;  // block (eg. 30)\r\n\r\n    // State\r\n    bool public isPaused;  // Prevent opening new trades\r\n    bool public isDone;    // Prevent any interaction with the contract\r\n\r\n    // Events\r\n    event Done(bool done);\r\n    event Paused(bool paused);\r\n\r\n    event NumberUpdated(string name, uint value);\r\n\r\n    event MarketOrderInitiated(\r\n        uint indexed orderId,\r\n        address indexed trader,\r\n        uint indexed pairIndex,\r\n        bool open\r\n    );\r\n\r\n    event OpenLimitPlaced(\r\n        address indexed trader,\r\n        uint indexed pairIndex,\r\n        uint index\r\n    );\r\n    event OpenLimitUpdated(\r\n        address indexed trader,\r\n        uint indexed pairIndex,\r\n        uint index,\r\n        uint newPrice,\r\n        uint newTp,\r\n        uint newSl\r\n    );\r\n    event OpenLimitCanceled(\r\n        address indexed trader,\r\n        uint indexed pairIndex,\r\n        uint index\r\n    );\r\n\r\n    event TpUpdated(\r\n        address indexed trader,\r\n        uint indexed pairIndex,\r\n        uint index,\r\n        uint newTp\r\n    );\r\n    event SlUpdated(\r\n        address indexed trader,\r\n        uint indexed pairIndex,\r\n        uint index,\r\n        uint newSl\r\n    );\r\n    event SlUpdateInitiated(\r\n        uint indexed orderId,\r\n        address indexed trader,\r\n        uint indexed pairIndex,\r\n        uint index,\r\n        uint newSl\r\n    );\r\n\r\n    event NftOrderInitiated(\r\n        uint orderId,\r\n        address indexed nftHolder,\r\n        address indexed trader,\r\n        uint indexed pairIndex\r\n    );\r\n    event NftOrderSameBlock(\r\n        address indexed nftHolder,\r\n        address indexed trader,\r\n        uint indexed pairIndex\r\n    );\r\n\r\n    event ChainlinkCallbackTimeout(\r\n        uint indexed orderId,\r\n        StorageInterfaceV5.PendingMarketOrder order\r\n    );\r\n    event CouldNotCloseTrade(\r\n        address indexed trader,\r\n        uint indexed pairIndex,\r\n        uint index\r\n    );\r\n\r\n    constructor(\r\n        StorageInterfaceV5 _storageT,\r\n        NftRewardsInterfaceV6 _nftRewards,\r\n        GNSPairInfosInterfaceV6 _pairInfos,\r\n        GNSReferralsInterfaceV6_2 _referrals,\r\n        uint _maxPosDai,\r\n        uint _limitOrdersTimelock,\r\n        uint _marketOrdersTimeout\r\n    ) {\r\n        require(address(_storageT) != address(0)\r\n            && address(_nftRewards) != address(0)\r\n            && address(_pairInfos) != address(0)\r\n            && address(_referrals) != address(0)\r\n            && _maxPosDai > 0\r\n            && _limitOrdersTimelock > 0\r\n            && _marketOrdersTimeout > 0, \"WRONG_PARAMS\");\r\n\r\n        storageT = _storageT;\r\n        nftRewards = _nftRewards;\r\n        pairInfos = _pairInfos;\r\n        referrals = _referrals;\r\n\r\n        maxPosDai = _maxPosDai;\r\n        limitOrdersTimelock = _limitOrdersTimelock;\r\n        marketOrdersTimeout = _marketOrdersTimeout;\r\n    }\r\n\r\n    // Modifiers\r\n    modifier onlyGov(){\r\n        require(msg.sender == storageT.gov(), \"GOV_ONLY\");\r\n        _;\r\n    }\r\n    modifier notContract(){\r\n        require(tx.origin == msg.sender);\r\n        _;\r\n    }\r\n    modifier notDone(){\r\n        require(!isDone, \"DONE\");\r\n        _;\r\n    }\r\n\r\n    // Manage params\r\n    function setMaxPosDai(uint value) external onlyGov{\r\n        require(value > 0, \"VALUE_0\");\r\n        maxPosDai = value;\r\n        \r\n        emit NumberUpdated(\"maxPosDai\", value);\r\n    }\r\n    function setLimitOrdersTimelock(uint value) external onlyGov{\r\n        require(value > 0, \"VALUE_0\");\r\n        limitOrdersTimelock = value;\r\n        \r\n        emit NumberUpdated(\"limitOrdersTimelock\", value);\r\n    }\r\n    function setMarketOrdersTimeout(uint value) external onlyGov{\r\n        require(value > 0, \"VALUE_0\");\r\n        marketOrdersTimeout = value;\r\n        \r\n        emit NumberUpdated(\"marketOrdersTimeout\", value);\r\n    }\r\n\r\n    // Manage state\r\n    function pause() external onlyGov{\r\n        isPaused = !isPaused;\r\n\r\n        emit Paused(isPaused);\r\n    }\r\n    function done() external onlyGov{\r\n        isDone = !isDone;\r\n\r\n        emit Done(isDone);\r\n    }\r\n\r\n    // Open new trade (MARKET/LIMIT)\r\n    function openTrade(\r\n        StorageInterfaceV5.Trade memory t,\r\n        NftRewardsInterfaceV6.OpenLimitOrderType orderType, // LEGACY => market\r\n        uint spreadReductionId,\r\n        uint slippageP, // for market orders only\r\n        address referrer\r\n    ) external notContract notDone{\r\n\r\n        require(!isPaused, \"PAUSED\");\r\n\r\n        AggregatorInterfaceV6_2 aggregator = storageT.priceAggregator();\r\n        PairsStorageInterfaceV6 pairsStored = aggregator.pairsStorage();\r\n\r\n        address sender = _msgSender();\r\n\r\n        require(storageT.openTradesCount(sender, t.pairIndex)\r\n            + storageT.pendingMarketOpenCount(sender, t.pairIndex)\r\n            + storageT.openLimitOrdersCount(sender, t.pairIndex)\r\n            < storageT.maxTradesPerPair(), \r\n            \"MAX_TRADES_PER_PAIR\");\r\n\r\n        require(storageT.pendingOrderIdsCount(sender)\r\n            < storageT.maxPendingMarketOrders(), \r\n            \"MAX_PENDING_ORDERS\");\r\n\r\n        require(t.positionSizeDai <= maxPosDai, \"ABOVE_MAX_POS\");\r\n        require(t.positionSizeDai * t.leverage\r\n            >= pairsStored.pairMinLevPosDai(t.pairIndex), \"BELOW_MIN_POS\");\r\n\r\n        require(t.leverage > 0 && t.leverage >= pairsStored.pairMinLeverage(t.pairIndex) \r\n            && t.leverage <= pairsStored.pairMaxLeverage(t.pairIndex), \r\n            \"LEVERAGE_INCORRECT\");\r\n\r\n        require(spreadReductionId == 0\r\n            || storageT.nfts(spreadReductionId - 1).balanceOf(sender) > 0,\r\n            \"NO_CORRESPONDING_NFT_SPREAD_REDUCTION\");\r\n\r\n        require(t.tp == 0 || (t.buy ?\r\n                t.tp > t.openPrice :\r\n                t.tp < t.openPrice), \"WRONG_TP\");\r\n\r\n        require(t.sl == 0 || (t.buy ?\r\n                t.sl < t.openPrice :\r\n                t.sl > t.openPrice), \"WRONG_SL\");\r\n\r\n        (uint priceImpactP, ) = pairInfos.getTradePriceImpact(\r\n            0,\r\n            t.pairIndex,\r\n            t.buy,\r\n            t.positionSizeDai * t.leverage\r\n        );\r\n\r\n        require(priceImpactP * t.leverage\r\n            <= pairInfos.maxNegativePnlOnOpenP(), \"PRICE_IMPACT_TOO_HIGH\");\r\n\r\n        storageT.transferDai(sender, address(storageT), t.positionSizeDai);\r\n\r\n        if(orderType != NftRewardsInterfaceV6.OpenLimitOrderType.LEGACY){\r\n            uint index = storageT.firstEmptyOpenLimitIndex(sender, t.pairIndex);\r\n\r\n            storageT.storeOpenLimitOrder(\r\n                StorageInterfaceV5.OpenLimitOrder(\r\n                    sender,\r\n                    t.pairIndex,\r\n                    index,\r\n                    t.positionSizeDai,\r\n                    spreadReductionId > 0 ?\r\n                        storageT.spreadReductionsP(spreadReductionId - 1) :\r\n                        0,\r\n                    t.buy,\r\n                    t.leverage,\r\n                    t.tp,\r\n                    t.sl,\r\n                    t.openPrice,\r\n                    t.openPrice,\r\n                    block.number,\r\n                    0\r\n                )\r\n            );\r\n\r\n            nftRewards.setOpenLimitOrderType(sender, t.pairIndex, index, orderType);\r\n\r\n            emit OpenLimitPlaced(\r\n                sender,\r\n                t.pairIndex,\r\n                index\r\n            );\r\n\r\n        }else{\r\n            uint orderId = aggregator.getPrice(\r\n                t.pairIndex, \r\n                AggregatorInterfaceV6_2.OrderType.MARKET_OPEN, \r\n                t.positionSizeDai * t.leverage\r\n            );\r\n\r\n            storageT.storePendingMarketOrder(\r\n                StorageInterfaceV5.PendingMarketOrder(\r\n                    StorageInterfaceV5.Trade(\r\n                        sender,\r\n                        t.pairIndex,\r\n                        0,\r\n                        0,\r\n                        t.positionSizeDai,\r\n                        0, \r\n                        t.buy,\r\n                        t.leverage,\r\n                        t.tp,\r\n                        t.sl\r\n                    ),\r\n                    0,\r\n                    t.openPrice,\r\n                    slippageP,\r\n                    spreadReductionId > 0 ?\r\n                        storageT.spreadReductionsP(spreadReductionId - 1) :\r\n                        0,\r\n                    0\r\n                ), orderId, true\r\n            );\r\n\r\n            emit MarketOrderInitiated(\r\n                orderId,\r\n                sender,\r\n                t.pairIndex,\r\n                true\r\n            );\r\n        }\r\n\r\n        referrals.registerPotentialReferrer(sender, referrer);\r\n    }\r\n\r\n    // Close trade (MARKET)\r\n    function closeTradeMarket(\r\n        uint pairIndex,\r\n        uint index\r\n    ) external notContract notDone{\r\n\r\n        address sender = _msgSender();\r\n\r\n        StorageInterfaceV5.Trade memory t = storageT.openTrades(\r\n            sender, pairIndex, index\r\n        );\r\n\r\n        StorageInterfaceV5.TradeInfo memory i = storageT.openTradesInfo(\r\n            sender, pairIndex, index\r\n        );\r\n\r\n        require(storageT.pendingOrderIdsCount(sender)\r\n            < storageT.maxPendingMarketOrders(), \"MAX_PENDING_ORDERS\");\r\n\r\n        require(!i.beingMarketClosed, \"ALREADY_BEING_CLOSED\");\r\n        require(t.leverage > 0, \"NO_TRADE\");\r\n\r\n        uint orderId = storageT.priceAggregator().getPrice(\r\n            pairIndex, \r\n            AggregatorInterfaceV6_2.OrderType.MARKET_CLOSE, \r\n            t.initialPosToken * i.tokenPriceDai * t.leverage / PRECISION\r\n        );\r\n\r\n        storageT.storePendingMarketOrder(\r\n            StorageInterfaceV5.PendingMarketOrder(\r\n                StorageInterfaceV5.Trade(\r\n                    sender, pairIndex, index, 0, 0, 0, false, 0, 0, 0\r\n                ),\r\n                0, 0, 0, 0, 0\r\n            ), orderId, false\r\n        );\r\n\r\n        emit MarketOrderInitiated(\r\n            orderId,\r\n            sender,\r\n            pairIndex,\r\n            false\r\n        );\r\n    }\r\n\r\n    // Manage limit order (OPEN)\r\n    function updateOpenLimitOrder(\r\n        uint pairIndex, \r\n        uint index, \r\n        uint price,  // PRECISION\r\n        uint tp,\r\n        uint sl\r\n    ) external notContract notDone{\r\n\r\n        address sender = _msgSender();\r\n\r\n        require(storageT.hasOpenLimitOrder(sender, pairIndex, index),\r\n            \"NO_LIMIT\");\r\n\r\n        StorageInterfaceV5.OpenLimitOrder memory o = storageT.getOpenLimitOrder(\r\n            sender, pairIndex, index\r\n        );\r\n\r\n        require(block.number - o.block >= limitOrdersTimelock, \"LIMIT_TIMELOCK\");\r\n\r\n        require(tp == 0 || (o.buy ?\r\n            tp > price :\r\n            tp < price), \"WRONG_TP\");\r\n\r\n        require(sl == 0 || (o.buy ?\r\n            sl < price :\r\n            sl > price), \"WRONG_SL\");\r\n\r\n        o.minPrice = price;\r\n        o.maxPrice = price;\r\n\r\n        o.tp = tp;\r\n        o.sl = sl;\r\n\r\n        storageT.updateOpenLimitOrder(o);\r\n\r\n        emit OpenLimitUpdated(\r\n            sender,\r\n            pairIndex,\r\n            index,\r\n            price,\r\n            tp,\r\n            sl\r\n        );\r\n    }\r\n\r\n    function cancelOpenLimitOrder(\r\n        uint pairIndex,\r\n        uint index\r\n    ) external notContract notDone{\r\n\r\n        address sender = _msgSender();\r\n\r\n        require(storageT.hasOpenLimitOrder(sender, pairIndex, index),\r\n            \"NO_LIMIT\");\r\n\r\n        StorageInterfaceV5.OpenLimitOrder memory o = storageT.getOpenLimitOrder(\r\n            sender, pairIndex, index\r\n        );\r\n\r\n        require(block.number - o.block >= limitOrdersTimelock, \"LIMIT_TIMELOCK\");\r\n\r\n        storageT.unregisterOpenLimitOrder(sender, pairIndex, index);\r\n        storageT.transferDai(address(storageT), sender, o.positionSize);\r\n\r\n        emit OpenLimitCanceled(\r\n            sender,\r\n            pairIndex,\r\n            index\r\n        );\r\n    }\r\n\r\n    // Manage limit order (TP/SL)\r\n    function updateTp(\r\n        uint pairIndex,\r\n        uint index,\r\n        uint newTp\r\n    ) external notContract notDone{\r\n\r\n        address sender = _msgSender();\r\n\r\n        StorageInterfaceV5.Trade memory t = storageT.openTrades(\r\n            sender, pairIndex, index\r\n        );\r\n\r\n        StorageInterfaceV5.TradeInfo memory i = storageT.openTradesInfo(\r\n            sender, pairIndex, index\r\n        );\r\n\r\n        require(t.leverage > 0, \"NO_TRADE\");\r\n        require(block.number - i.tpLastUpdated >= limitOrdersTimelock,\r\n            \"LIMIT_TIMELOCK\");\r\n\r\n        storageT.updateTp(sender, pairIndex, index, newTp);\r\n\r\n        emit TpUpdated(\r\n            sender,\r\n            pairIndex,\r\n            index,\r\n            newTp\r\n        );\r\n    }\r\n\r\n    function updateSl(\r\n        uint pairIndex,\r\n        uint index,\r\n        uint newSl\r\n    ) external notContract notDone{\r\n\r\n        address sender = _msgSender();\r\n\r\n        StorageInterfaceV5.Trade memory t = storageT.openTrades(\r\n            sender, pairIndex, index\r\n        );\r\n\r\n        StorageInterfaceV5.TradeInfo memory i = storageT.openTradesInfo(\r\n            sender, pairIndex, index\r\n        );\r\n\r\n        require(t.leverage > 0, \"NO_TRADE\");\r\n\r\n        uint maxSlDist = t.openPrice * MAX_SL_P / 100 / t.leverage;\r\n\r\n        require(newSl == 0 || (t.buy ? \r\n            newSl >= t.openPrice - maxSlDist :\r\n            newSl <= t.openPrice + maxSlDist), \"SL_TOO_BIG\");\r\n        \r\n        require(block.number - i.slLastUpdated >= limitOrdersTimelock,\r\n            \"LIMIT_TIMELOCK\");\r\n\r\n        AggregatorInterfaceV6_2 aggregator = storageT.priceAggregator();\r\n\r\n        if(newSl == 0\r\n        || !aggregator.pairsStorage().guaranteedSlEnabled(pairIndex)){\r\n\r\n            storageT.updateSl(sender, pairIndex, index, newSl);\r\n\r\n            emit SlUpdated(\r\n                sender,\r\n                pairIndex,\r\n                index,\r\n                newSl\r\n            );\r\n\r\n        }else{\r\n            uint orderId = aggregator.getPrice(\r\n                pairIndex,\r\n                AggregatorInterfaceV6_2.OrderType.UPDATE_SL, \r\n                t.initialPosToken * i.tokenPriceDai * t.leverage / PRECISION\r\n            );\r\n\r\n            aggregator.storePendingSlOrder(\r\n                orderId, \r\n                AggregatorInterfaceV6_2.PendingSl(\r\n                    sender, pairIndex, index, t.openPrice, t.buy, newSl\r\n                )\r\n            );\r\n            \r\n            emit SlUpdateInitiated(\r\n                orderId,\r\n                sender,\r\n                pairIndex,\r\n                index,\r\n                newSl\r\n            );\r\n        }\r\n    }\r\n\r\n    // Execute limit order\r\n    function executeNftOrder(\r\n        StorageInterfaceV5.LimitOrder orderType, \r\n        address trader, \r\n        uint pairIndex, \r\n        uint index,\r\n        uint nftId, \r\n        uint nftType\r\n    ) external notContract notDone{\r\n\r\n        address sender = _msgSender();\r\n\r\n        require(nftType >= 1 && nftType <= 5, \"WRONG_NFT_TYPE\");\r\n        require(storageT.nfts(nftType - 1).ownerOf(nftId) == sender, \"NO_NFT\");\r\n\r\n        require(block.number >=\r\n            storageT.nftLastSuccess(nftId) + storageT.nftSuccessTimelock(),\r\n            \"SUCCESS_TIMELOCK\");\r\n\r\n        StorageInterfaceV5.Trade memory t;\r\n\r\n        if(orderType == StorageInterfaceV5.LimitOrder.OPEN){\r\n            require(storageT.hasOpenLimitOrder(trader, pairIndex, index),\r\n                \"NO_LIMIT\");\r\n\r\n        }else{\r\n            t = storageT.openTrades(trader, pairIndex, index);\r\n\r\n            require(t.leverage > 0, \"NO_TRADE\");\r\n\r\n            if(orderType == StorageInterfaceV5.LimitOrder.LIQ){\r\n                uint liqPrice = getTradeLiquidationPrice(t);\r\n                \r\n                require(t.sl == 0 || (t.buy ?\r\n                    liqPrice > t.sl :\r\n                    liqPrice < t.sl), \"HAS_SL\");\r\n\r\n            }else{\r\n                require(orderType != StorageInterfaceV5.LimitOrder.SL || t.sl > 0,\r\n                    \"NO_SL\");\r\n                require(orderType != StorageInterfaceV5.LimitOrder.TP || t.tp > 0,\r\n                    \"NO_TP\");\r\n            }\r\n        }\r\n\r\n        NftRewardsInterfaceV6.TriggeredLimitId memory triggeredLimitId =\r\n            NftRewardsInterfaceV6.TriggeredLimitId(\r\n                trader, pairIndex, index, orderType\r\n            );\r\n\r\n        if(!nftRewards.triggered(triggeredLimitId)\r\n        || nftRewards.timedOut(triggeredLimitId)){\r\n            \r\n            uint leveragedPosDai;\r\n\r\n            if(orderType == StorageInterfaceV5.LimitOrder.OPEN){\r\n\r\n                StorageInterfaceV5.OpenLimitOrder memory l = storageT.getOpenLimitOrder(\r\n                    trader, pairIndex, index\r\n                );\r\n\r\n                leveragedPosDai = l.positionSize * l.leverage;\r\n\r\n                (uint priceImpactP, ) = pairInfos.getTradePriceImpact(\r\n                    0,\r\n                    l.pairIndex,\r\n                    l.buy,\r\n                    leveragedPosDai\r\n                );\r\n                \r\n                require(priceImpactP * l.leverage <= pairInfos.maxNegativePnlOnOpenP(),\r\n                    \"PRICE_IMPACT_TOO_HIGH\");\r\n\r\n            }else{\r\n                leveragedPosDai = t.initialPosToken * storageT.openTradesInfo(\r\n                    trader, pairIndex, index\r\n                ).tokenPriceDai * t.leverage / PRECISION;\r\n            }\r\n\r\n            storageT.transferLinkToAggregator(sender, pairIndex, leveragedPosDai);\r\n\r\n            uint orderId = storageT.priceAggregator().getPrice(\r\n                pairIndex, \r\n                orderType == StorageInterfaceV5.LimitOrder.OPEN ? \r\n                    AggregatorInterfaceV6_2.OrderType.LIMIT_OPEN : \r\n                    AggregatorInterfaceV6_2.OrderType.LIMIT_CLOSE,\r\n                leveragedPosDai\r\n            );\r\n\r\n            storageT.storePendingNftOrder(\r\n                StorageInterfaceV5.PendingNftOrder(\r\n                    sender,\r\n                    nftId,\r\n                    trader,\r\n                    pairIndex,\r\n                    index,\r\n                    orderType\r\n                ), orderId\r\n            );\r\n\r\n            nftRewards.storeFirstToTrigger(triggeredLimitId, sender);\r\n            \r\n            emit NftOrderInitiated(\r\n                orderId,\r\n                sender,\r\n                trader,\r\n                pairIndex\r\n            );\r\n\r\n        }else{\r\n            nftRewards.storeTriggerSameBlock(triggeredLimitId, sender);\r\n            \r\n            emit NftOrderSameBlock(\r\n                sender,\r\n                trader,\r\n                pairIndex\r\n            );\r\n        }\r\n    }\r\n    // Avoid stack too deep error in executeNftOrder\r\n    function getTradeLiquidationPrice(\r\n        StorageInterfaceV5.Trade memory t\r\n    ) private view returns(uint){\r\n        return pairInfos.getTradeLiquidationPrice(\r\n            t.trader,\r\n            t.pairIndex,\r\n            t.index,\r\n            t.openPrice,\r\n            t.buy,\r\n            t.initialPosToken * storageT.openTradesInfo(\r\n                t.trader, t.pairIndex, t.index\r\n            ).tokenPriceDai / PRECISION,\r\n            t.leverage\r\n        );\r\n    }\r\n\r\n    // Market timeout\r\n    function openTradeMarketTimeout(uint _order) external notContract notDone{\r\n        address sender = _msgSender();\r\n\r\n        StorageInterfaceV5.PendingMarketOrder memory o =\r\n            storageT.reqID_pendingMarketOrder(_order);\r\n\r\n        StorageInterfaceV5.Trade memory t = o.trade;\r\n\r\n        require(o.block > 0\r\n            && block.number >= o.block + marketOrdersTimeout, \"WAIT_TIMEOUT\");\r\n\r\n        require(t.trader == sender, \"NOT_YOUR_ORDER\");\r\n        require(t.leverage > 0, \"WRONG_MARKET_ORDER_TYPE\");\r\n\r\n        storageT.unregisterPendingMarketOrder(_order, true);\r\n        storageT.transferDai(address(storageT), sender, t.positionSizeDai);\r\n\r\n        emit ChainlinkCallbackTimeout(\r\n            _order,\r\n            o\r\n        );\r\n    }\r\n    \r\n    function closeTradeMarketTimeout(uint _order) external notContract notDone{\r\n        address sender = _msgSender();\r\n\r\n        StorageInterfaceV5.PendingMarketOrder memory o =\r\n            storageT.reqID_pendingMarketOrder(_order);\r\n\r\n        StorageInterfaceV5.Trade memory t = o.trade;\r\n\r\n        require(o.block > 0\r\n            && block.number >= o.block + marketOrdersTimeout, \"WAIT_TIMEOUT\");\r\n\r\n        require(t.trader == sender, \"NOT_YOUR_ORDER\");\r\n        require(t.leverage == 0, \"WRONG_MARKET_ORDER_TYPE\");\r\n\r\n        storageT.unregisterPendingMarketOrder(_order, false);\r\n\r\n        (bool success, ) = address(this).delegatecall(\r\n            abi.encodeWithSignature(\r\n                \"closeTradeMarket(uint256,uint256)\",\r\n                t.pairIndex,\r\n                t.index\r\n            )\r\n        );\r\n\r\n        if(!success){\r\n            emit CouldNotCloseTrade(\r\n                sender,\r\n                t.pairIndex,\r\n                t.index\r\n            );\r\n        }\r\n\r\n        emit ChainlinkCallbackTimeout(\r\n            _order,\r\n            o\r\n        );\r\n    }\r\n}",
    "sourcePath": "C:\\GNS\\matic-v6-2\\contracts\\GNSTradingV6_2.sol",
    "compiler": {
        "name": "solc",
        "version": "0.8.15+commit.e14f2714.Emscripten.clang"
    },
    "schemaVersion": "3.4.8",
    "updatedAt": "2022-08-17T08:17:50.426Z",
    "networkType": "ethereum",
    "devdoc": {
        "kind": "dev",
        "methods": {},
        "version": 1
    },
    "userdoc": {
        "kind": "user",
        "methods": {},
        "version": 1
    }
}